:020000040800F2
:1000000038490020810200085B2200081720000800
:1000100059220008B10300080D2B00080000000061
:10002000000000000000000000000000C101000806
:1000300001050008000000001D02000899240008C6
:100040009B0200089B0200089B0200089B0200081C
:100050009B0200089B0200089B0200089B0200080C
:100060009B0200089B0200089B0200089B020008FC
:100070009B0200089B0200089B0200089B020008EC
:100080009B0200089B0200089B0200089B020008DC
:10009000B50300089B0200089B0200089B020008B1
:1000A0009B0200089D2500089B0200089B02000897
:1000B0009B0200089B0200089B0200089B020008AC
:1000C0009B0200089B0200089B0200089B0200089C
:1000D0009B020008E52A00089B0200089B0200081A
:1000E0009B0200089B0200089B0200089B0200087C
:1000F0009B0200089B0200089B0200089B0200086C
:100100009B0200089B0200089B0200089B0200085B
:100110009B0200089B0200089B0200089B0200084B
:100120009B0200089B020008510400089B02000883
:100130009B0200089B0200089B0200089B0200082B
:100140009B0200089B0200089B0200089B0200081B
:100150009B0200089B0200089B0200089B0200080B
:100160009B0200089B0200089B0200089B020008FB
:100170009B0200089B0200089B0200080000000090
:100180009B0200089B0200089B0200089B020008DB
:100190009B0200089B0200089B0200089B020008CB
:1001A00000000000000000009B020008DFF80CD0F7
:1001B00000F0ECF8004800470D32000838490020F4
:1001C0002C4B19680868B0E8F04F80F30988BFF33A
:1001D0006F8F4FF0000080F311887047000000001F
:1001E00008480068006880F308884FF0000080F33A
:1001F000148862B661B6BFF34F8FBFF36F8F00DF15
:1002000000BF00BF08ED00E0DFF80C00016841F41A
:1002100070010160704700BF88ED00E0EFF30980D6
:10022000BFF36F8F134B1A681EF0100F08BF20ED3D
:10023000108A20E9F04F106009B44FF0500080F3AD
:100240001188BFF34F8FBFF36F8F03F0FFFB4FF0A9
:10025000000080F3118809BC19680868B0E8F04F05
:100260001EF0100F08BFB0EC108A80F30988BFF3AE
:100270006F8F704718000020EFF305807047000073
:100280000648804706480047FEE7FEE7FEE7FEE730
:10029000FEE7FEE7FEE7FEE7FEE7FEE7492500088A
:1002A000AD0100082DE9F05F0546002092469B460F
:1002B00088460646814640241BE02846414647467C
:1002C000224600F053F853465A46C01A914110D3C3
:1002D00011461846224600F03AF82D1A67EB01083D
:1002E0004F4622460120002100F031F817EB0009AB
:1002F0004E41201EA4F10104DFDC484631462A4667
:100300004346BDE8F09F40EA01039B0703D009E0A4
:1003100008C9121F08C0042AFAD203E011F8013BF1
:1003200000F8013B521EF9D27047D2B201E000F84A
:10033000012B491EFBD270470022F6E710B5134689
:100340000A4604461946FFF7F0FF204610BD202A52
:1003500004DB203A00FA02F1002070479140C2F11C
:10036000200320FA03F3194390407047202A04DB4E
:10037000203A21FA02F00021704721FA02F3D0401E
:10038000C2F120029140084319467047064C074DC0
:1003900006E0E06840F0010394E807009847103455
:1003A000AC42F6D3FFF706FF943E0008B43E0008C7
:1003B000FEE70000014800F016BA00009C00002093
:1003C00038B50E4C4FF4007525600025A560E5603A
:1003D000082525610A4C050A25706070080AA0707E
:1003E000E170100A20716271180AA071E3716B4606
:1003F00022460249034800F097F838BDD043002058
:100400008A0000209C00002038B50E4C40F2FF15F9
:1004100025600025A560E560082525610A4C050AD0
:1004200025706070080AA070E170100A2071627176
:10043000180AA071E3716B4622460249034800F096
:1004400073F838BDB8430020820000209C000020D3
:10045000014800F07FBC00009803002001681823C9
:10046000CAB2103AB2FBF3F2054B6FF30901032A4B
:100470009B5CC36500D9091D816508467047000073
:100480002C3E000810B5014600208B698A6A4FF0A7
:10049000C07453B1B3F5005F15D072B1012A0CD00E
:1004A000022A0AD0032A09D104E01AB1012A06D08F
:1004B000022A03D1C96AC90100D5012010BDC96A49
:1004C000A142FAD010BD002AF7D0012AF2D0022AA8
:1004D000F3D0032AF3D010BD30B50468256825F4A5
:1004E00080252560046863608368402B036803D01F
:1004F00099600068C26030BD9A600068C16030BD1C
:100500007047704790F82020012A07D0022A05D0B2
:10051000416A41F4802141620120704700684269CC
:100520000A43426100207047F0B590F820500468FB
:10053000A468012D05D0022D03D0416A41F4802129
:1005400053E014F0406F01D1E5004BD5C4F30164D2
:10055000022C03D9416A41F4000146E00125A5407F
:100560001D608D684FF4C0739DB1CE6835434E68F1
:1005700045EAC605066803EB0417F5514FF4C2754A
:10058000076805EB04150E697E51097D012905D028
:1005900009E00E88CD6845EA4655EBE701684E59FB
:1005A00046F480764E511179D2F805504FF4C67654
:1005B00041EA0525016806EB04168D511178D2F841
:1005C00001204FF4C47541EA0221026805EB0415CD
:1005D0005151006803EB0411425842F001024250AD
:1005E0000020F0BD416A41F4001141620120F0BDDC
:1005F00010B590F82020012A07D0022A05D0416AC0
:1006000041F480214162012010BD3B48D0F8002216
:1006100042F00102C0F80022D0F8002222F47C52FD
:10062000C0F80022D0F800224B6A42EA0322C0F848
:1006300000220A7D02F01F0301229A40D0F81C32EA
:100640009343C0F81C32CB69B3B9D0F80C32934352
:10065000C0F80C328C894B6864F31F434C6900EB83
:10066000C404C4F840320C890B6864F31F434C691E
:1006700000EBC404C4F84432CB69012B16D1D0F886
:100680000C321343C0F80C320C884B6864F31F43E0
:100690004C6900EBC404C4F840320C89CB6864F3A5
:1006A0001F434C6900EBC404C4F844328B69002B2F
:1006B000D0F804320ED01343C0F804320B69002B7B
:1006C000D0F8143208D01343C0F81432096A012953
:1006D00004D008E09343EFE79343F5E7D0F81C120A
:1006E0001143C0F81C12D0F8001221F00101C0F82B
:1006F0000012002010BD000000640040704730B5BB
:1007000090F82040012C05D0022C03D0416A41F41E
:1007100080215DE00468002955D02469A40754D0E5
:100720004FF4D874056804EB01142D5915F0040535
:10073000956005682D594ED0ED08556005682C5917
:1007400004F00204D4604FF4DA74056804EB011479
:100750002D5905F00F05156105682D59C5F30725BD
:10076000956105682C59240C54614FF4DC720468BF
:1007700002EB0112A4581C700468A458240A5C708F
:100780000468A458240C9C700468A258120EDA70F5
:100790004FF4DE72046802EB0112A4581C71046865
:1007A000A458240A5C710468A458240C9C71046841
:1007B000A258120EDA71006881B1016941F020017E
:1007C0000161002030BDE468A8E7416A41F40011EE
:1007D0004162012030BD6D0D1560AFE7C16841F089
:1007E0002001C160EDE72DE9F05F054600680024B7
:1007F0004669D0F804908768D0F80CB0D0F810A003
:10080000D0F81880F10748D0F90714D00121816091
:10081000B80703D5284600F03EFA0CE0780702D569
:100820004FF4006407E0380702D54FF4805402E02B
:10083000284600F02FFAF80516D529684FF4807085
:100840008860B80503D5284600F027FA0CE0780543
:1008500002D544F4005407E0380502D544F480443E
:1008600002E0284600F018FAF80316D529684FF47C
:1008700080308860B80303D5284600F010FA0CE0F9
:10088000780302D544F4004407E0380302D544F469
:10089000803402E0284600F001FA300707D55FEA0D
:1008A000CB6004D52968102044F40074C860700738
:1008B0004FF0080707D55FEA0B7004D52868C760BA
:1008C000284600F057F9B00706D52868C0688007A9
:1008D00002D0284600F050F9700607D55FEACA60DA
:1008E00004D52968102044F480640861B00607D557
:1008F0005FEA0A7004D528680761284600F09AF973
:10090000F00606D528680069800702D0284600F066
:1009100092F9B00308D55FEAC96005D529681020AF
:100920004860284600F088F9F00307D55FEA0970AF
:1009300004D528684760284600F0B2F9300446D54F
:100940005FEA497040D5F00504D55FEAC87001D070
:1009500044F00104B00504D55FEA887001D544F085
:100960000204700504D55FEA487001D544F0040420
:10097000300529D518F0700F26D008F070004028F7
:1009800015D006DC102809D020280AD0302816D12E
:100990000AE050280ED0602811D10EE044F008047F
:1009A0000DE044F010040AE044F0200407E044F0B5
:1009B000400404E044F0800401E044F480742868BA
:1009C000816921F070018161296804204860002C50
:1009D00005D0686A204368622846FFF78FFEBDE8AD
:1009E000F09F70B5040003D094F8200010B104E02B
:1009F000012070BD204600F081F82068016821F0D8
:100A00000201016000F008FC0546052604E000F044
:100A100003FC401B0A2811D8206840688007F6D4E0
:100A20002068016841F00101016000F0F5FB054616
:100A30000BE000F0F1FB401B0A2806D9606A40F485
:100A40000030606284F82060D2E720684068C00708
:100A5000EFD0207E0128206801683DD021F0800180
:100A60000160607E01282068016838D021F04001D3
:100A70000160A07E01282068016833D021F02001A8
:100A80000160E07E0128206801682ED041F010014D
:100A90000160207F01282068016829D021F0080129
:100AA0000160607F01282068016824D021F00401E2
:100AB0000160D4E902010843D4E904121143084358
:100AC0006168491E08432168C861002060620120F6
:100AD00084F82000002070BD41F08001C0E741F0A3
:100AE0004001C5E741F02001CAE721F01001CFE73E
:100AF00041F00801D4E741F00401D9E710B586B010
:100B0000044614216846FFF717FC174920688842FD
:100B100027D116480021026842F000720260006886
:100B200000F00070059011481038026842F0080289
:100B300002600068022200F0080005900320CDE961
:100B40000210CDE90002092004906946084800F02F
:100B500073FA00220521142000F0EAFB142000F0B3
:100B6000D9FB06B010BD00000064004040380240D0
:100B7000000C02407047000000B58DB004AB06AA1F
:100B80000021FFF7BCFD0699284A2948A1F201215E
:100B900006291DD2DFE801F0030303031E1EC9B2BC
:100BA000117001EB410200EB820130F822300B8121
:100BB000BDF810305BBA20F82230BDF8120040BA00
:100BC0004880BDF8140040BA88809DF816008871EE
:100BD0000DB000BDC9B2517001EB410200EB8201C2
:100BE00030F822300B81BDF810305BBA20F822308B
:100BF000BDF812305BBA4B80BDF814305BBA8B8005
:100C00009DF816308B7130F82200B1F90820801A57
:100C1000B0F5805F02DD4889401E04E010F5805F7A
:100C2000D6DA4889401C4881D2E7000080000020C5
:100C300064430020704770477047000070B5044659
:100C400090F82000012804D0606A40F4002060621F
:100C500018E0022084F820002068016821F00101DA
:100C6000016000F0D9FA05460EE000BF00F0D4FAAA
:100C7000401B0A2808D9606A40F4003060620520F1
:100C800084F82000012070BD20684068C007EDD1C5
:100C9000606270BD7047704770477047704770471B
:100CA00070472DE9F0410446876D00F0B5FA06461D
:100CB00094F835000025022806D08020606584F86D
:100CC00034500120BDE8F0812068016821F0160150
:100CD00001602068416921F080014161206C08B900
:100CE000A06C20B12068016821F008010160206833
:100CF000016821F0010101600BE000F08DFA801B1A
:100D0000052806D92020606504F8345F0320607050
:100D1000D8E720680068C007EFD194F85C103F2046
:100D20008840B86004F8345F012060700020C9E793
:100D300090F83510022903D08021416501207047C9
:100D4000052180F835100068016821F0010101607B
:100D5000002070472DE9F84304464FF00009CDF814
:100D6000009063484FF41651A56D0068B0FBF1F791
:100D70002E6894F85C10082000FA01F131420FD07F
:100D800021680A6852070BD50A6822F004020A603B
:100D900094F85C108840A860606D40F001006065C8
:100DA00094F85C104FF0010808FA01F0304208D0C6
:100DB00021684969090604D5A860606D40F0020009
:100DC000606594F85C1004208840304208D02168A7
:100DD0000968890704D5A860606D40F0040060656B
:100DE00094F85C1010208840304218D021680968BF
:100DF000090714D5A86020680168490304D5006874
:100E0000000308D5A16C07E00168C90503D4016897
:100E100021F008010160216C09B12046884794F84F
:100E20005C1020208840304231D021680968C90612
:100E30002DD5A86094F8350005282068016806D0F3
:100E4000490347D5006800031DD4616C1CE021F004
:100E5000160101602068416921F080014161206C28
:100E600008B9A06C20B12068016821F00801016078
:100E700094F85C103F208840A86084F8349084F88F
:100E80003580216D1FE0E16B09B120468847606D18
:100E900000282BD0606DC00714D0052084F83500E1
:100EA0002068016821F0010101600098401C009059
:100EB000B84203D820680068C007F6D184F834909F
:100EC00084F83580E16C002910D001B02046BDE8DF
:100ED000F04308470168C905D5D4016821F0100125
:100EE000016084F8349084F83580CCE7BDE8F8835D
:100EF000140000202DE9F041044600F08DF906466B
:100F00005CB1002584F83450022084F83500206854
:100F1000016821F0010101600DE00120BDE8F081D0
:100F200000F07AF9801B052805D920206065032090
:100F300084F83500F2E720680068C007F0D1226825
:100F4000116820480140D4E901031843D4E903366D
:100F50003343184363691843A3691843E36918438B
:100F6000236A18430843616A042903D1D4E90B13A7
:100F700019430843106020684069666A20F0070141
:100F800030460E43012704280CD1A06A0643E06ACC
:100F900040B12046FFF776FA20B14020606584F822
:100FA0003570BAE7206846612046FFF757FA94F893
:100FB0005C203F2191408160656584F83570002098
:100FC000ACE700003F8010F02DE9F0410446866D4B
:100FD00090F83400002501280DD0012084F8340059
:100FE00094F835700020012F07D084F834000225D2
:100FF0002846BDE8F0810220FBE7022784F835701F
:1010000060652046FFF768FA94F85C103F2088403E
:10101000B0602068016841F016010160206C20B1C9
:101020002068016841F0080101602068016841F012
:1010300001010160DCE700002DE9F84F00224FF0CC
:10104000010803254FF00F0E0B6808FA02F4234045
:10105000A3426ED14E68012E05D0022E03D0112E70
:1010600001D0122E12D186684FEA420C05FA0CF715
:10107000BE43CF6807FA0CF7374387604668A6433C
:101080000C79C4F30014944034434460C66857009C
:1010900005FA07FC8C6826EA0C06BC403443C460A1
:1010A0004C68022C01D0122C13D1D40800EB84041C
:1010B000A346D4F8209054074FEAD46A0EFA0AF6F1
:1010C00029EA06090E6906FA0AF646EA0906CBF885
:1010D000206004680E7924EA0C0406F00306BE4082
:1010E000264306604C68E4006FD53B4C266846F406
:1010F00080462660246822F0030604F480440094AD
:10110000364C3444A446D4F808489607360F0EFAF5
:1011100006F7BC43324FB84201D100272EE0314FD1
:10112000B84201D1012729E02F4FB84202D102274E
:1011300024E04AE02D4FB84201D103271EE02C4F96
:10114000B84201D1042719E02A4FB84201D105273E
:1011500014E0294FB84201D106270FE0274FB842CB
:1011600001D107270AE0264FB84201D1082705E040
:10117000244FB84201D1092700E00A27B74027438E
:10118000CCF80878204E34684F689C43FF0300D5A4
:101190001C4334601C4E361D34684F689C43BF03AB
:1011A00000D51C433460184E083634684F689C43A1
:1011B000FF0200D51C433460134E0C3634684F6870
:1011C0009C43BF0200D51C433460521C102AFFF41C
:1011D0003BAFBDE8F88F00004438024000300140CA
:1011E000000002400004024000080240000C0240DF
:1011F000001002400014024000180240001C02408F
:101200000020024000240240003C01400AB18161FC
:1012100070470904FBE70000014880687047000040
:1012200008000020024881680278114481607047FC
:10123000080000200B4810B5016841F400710160FE
:10124000016841F480610160016841F480710160CE
:10125000032000F08DF8002000F006F800F03EF8C2
:10126000002010BD003C024010B5014688B00022AD
:10127000192000F05DF8192000F04CF81348002404
:10128000016841F001010160006805A900F001005A
:101290000690684600F018F900F046F90C49400045
:1012A000B0FBF1F10C480B4A491E026040F2E732F4
:1012B000C0E90324C0E9011400F070FB10B1012063
:1012C00008B010BD044800F085FBF9E7443802403F
:1012D00040420F0000000140F80300200C4882B09B
:1012E000016841F480410160006800F48040009092
:1012F0000748001F016841F080510160006800222A
:1013000000F0805000900F21901E02B000F010B845
:1013100044380240002809DB00F01F0201219140FF
:101320004009800000F1E020C0F800117047000083
:10133000F0B40E4B1B680C46C3F30223C3F1070540
:10134000042D00D90425191D072901D2002300E02E
:10135000DB1E012606FA05F1491E214099409E40F8
:10136000761E16403143F0BC01F0FCBB0CED00E0F2
:10137000064900F0070208684FF6FF03184040EAEC
:101380000220034A10430860704700000CED00E0A3
:101390000000FA052DE9F0470E46050065D0DFF89C
:1013A0001481D8F80000F7B200F00F00B04207D265
:1013B00088F80070D8F8000000F00F00B04254D157
:1013C00028683D4C810712D5400703D5206840F4BA
:1013D000E05020602878000703D5206840F4604082
:1013E00020602068A96820F0F00008432060287879
:1013F000C0072DD0304968680839012812D002286A
:1014000013D0032811D00968890700292DDA216833
:1014100021F0030101432160FFF7FEFE814641F206
:10142000883A0EE009688903EFE709688901ECE76B
:10143000FFF7F2FEA0EB0901514502D90320BDE8F8
:10144000F0872068696800F00C00B0EB810FEFD1E5
:10145000D8F80010404601F00F01B14207D90770DB
:10146000006800F00F00B04201D00120E7E72878C3
:10147000400705D52068E96820F4E0500843206063
:101480002878000706D52068296920F4604040EAE2
:10149000C100206000F058F82168084AC1F3031128
:1014A000515CC8400649086006480068FFF7DCFE4A
:1014B0000020C4E7003C024008380240343E0008E7
:1014C000140000200C0000200F2202600C4A136858
:1014D00003F003034360136803F0F00383601368B1
:1014E00003F4E053C36012684FF4E05303EAD202FE
:1014F00002610448006800F00F00086070470000B7
:1015000008380240003C0240044805490068096868
:10151000044AC1F38221515CC84070471400002086
:1015200008380240443E000804480549006809683C
:10153000044AC1F34231515CC84070471400002096
:1015400008380240443E0008154810B5006810F005
:101550000C02144813D01449042A0FD0082A0ED1C3
:101560000F4C241F2268236802F03F025B0207D55C
:101570002068C0F38810A0FB010106E0084610BDFA
:101580002168C1F38811A1FB00010023FEF78AFE48
:101590002168C1F30141491C4900B0FBF1F010BDC5
:1015A000083802400024F400001BB7002DE9F84F72
:1015B00004006ED02078DFF83C93C007A9F1040541
:1015C0004AD009F104000168C1F38101012908D062
:1015D0000068C0F3810002280AD1D9F80000400257
:1015E00006D52868800337D560680028E1D033E04D
:1015F0006068B0F5803F10D0B0F5A02F286810D0FB
:1016000020F480302860286820F4802028606068FA
:10161000A8B1FFF701FE06460DE0286840F48030CF
:10162000F4E740F480202860F7E700BFFFF7F4FDFF
:10163000801B642873D828688003F7D50CE0FFF777
:10164000EBFD064605E000BFFFF7E6FD801B6428C2
:10165000F0D828688003F7D42078DFF89C828007D0
:101660004FF0000A3ED5A348001D016811F00C0F91
:1016700008D00068C0F3810002280BD1D9F800001F
:10168000400207D42868800716D5E068012800D1F9
:1016900012E02BE1E068B8B10120C8F80000FFF7C4
:1016A000BBFD064605E000BFFFF7B6FD801B022824
:1016B000C0D828688007F7D52868216920F0F8008D
:1016C00040EAC10028600DE0C8F800A0FFF7A4FDC3
:1016D000064604E0FFF7A0FD801B02281FD82868FB
:1016E0008007F7D42078000722D5824E83486169AD
:1016F000703671B101210160FFF78EFD074604E0ED
:10170000FFF78AFDC01B022809D830688007F7D58B
:101710000EE0C0F800A0FFF77FFD074605E082E07D
:10172000FFF77AFDC01B02287DD830688007F7D408
:101730002078400768D5DFF8BCB100270BF13C0BDF
:10174000DBF80000C0000BD4DBF8001041F0805142
:10175000CBF80010DBF80000012700F0805000906B
:10176000674E3068C00510D4306840F48070306037
:10177000FFF752FD009005E0FFF74EFD0099401A7B
:10178000022850D83068C005F6D55A4EA0686C368D
:1017900001280FD00528306810D020F001003060FB
:1017A000306820F004003060A068B8B1FFF734FD65
:1017B00000900FE0306840F00100F4E740F00400D2
:1017C0003060F7E7FFF728FD0099411A41F28830B1
:1017D000814266D830688007F4D50EE0FFF71CFD23
:1017E000009007E0FFF718FD0099411A41F2883098
:1017F000814256D830688007F4D42FB1DBF800104E
:1018000021F08051CBF80010A069C8B33949091DF7
:101810000968C1F3810102294AD00228504607D045
:10182000C8F8600000E03CE0FFF7F6FC04463BE04F
:101830004746C8F86000FFF7EFFC064605E000BF2A
:10184000FFF7EAFC801B02282BD828688001F7D418
:10185000D4E907010843A16A2A4A490802EB014179
:10186000626A41EA8211084394F82C1040EA01614F
:10187000C9F8001001203866FFF7CEFC044606E0E8
:1018800036E000BFFFF7C8FC001B022809D8286813
:101890008001F7D52CE000BFFFF7BEFC001B02283B
:1018A00002D90320BDE8F88F28688001F4D41FE036
:1018B0000128F7D0D9F80000E26900F480019142D4
:1018C00014D1226A00F03F0191420FD147F6C07156
:1018D000626A0140914209D1A26A00F4403191420A
:1018E00004D1E16A00F07060884201D00120D9E79C
:1018F0000020D7E70438024000004742800E4742EC
:10190000007000400000FFFF7047704770B590F80E
:101910003C20012A32D0012480F83C40022280F889
:101920003D2003685A689D6822F070060A683243B9
:101930005A60134B02689A4214D0B2F1804F11D012
:10194000104B9A420ED0104B9A420BD00F4B9A423A
:1019500008D00F4B9A4205D00E4B9A4202D00E4B44
:101960009A4204D1496825F080031943916080F8B8
:101970003D40002180F83C10084670BD022070BD3B
:10198000000001400004004000080040000C00403E
:1019900000040140004001400018004010B5040060
:1019A00003D094F83D0010B107E0012010BD0020E5
:1019B00084F83C00204600F00CF8022084F83D003A
:1019C000211D206800F0F0FD012084F83D0000207A
:1019D00010BD70470168CA6842F00102CA60006821
:1019E000816801F00701062903D0016841F0010177
:1019F000016000207047704770B5044600680169B7
:101A00004FF00005C943890715D4C168C943890748
:101A100011D4E91E016101202077206880698007C8
:101A2000204602D0FFF7E7FF04E000F0C1F82046AF
:101A300000F054F9257720680169C943490717D494
:101A4000C168C943490713D46FF004010161022042
:101A500020772068806910F4407F204602D0FFF78D
:101A6000CAFF04E000F0A4F8204600F037F925771B
:101A700020680169C943090716D4C168C943090729
:101A800012D46FF008010161042020772068C0693A
:101A90008007204602D0FFF7AEFF04E000F088F890
:101AA000204600F01BF9257720680169C943C90663
:101AB00017D4C168C943C90613D46FF0100101617E
:101AC000082020772068C06910F4407F204602D0AB
:101AD000FFF791FF04E000F06BF8204600F0FEF8FD
:101AE000257720680169C943C90708D1C168C9437E
:101AF000C90704D1891E0161204600F0F1F8206871
:101B00000169C943090609D4C168C943090605D456
:101B10006FF0800101612046FFF7F6FE2068016941
:101B2000C943490609D4C168C943490605D46FF0C1
:101B300040010161204600F0DDF820680169C943D9
:101B400089060BD4C168C943890607D46FF0200108
:101B500001612046BDE87040FFF7D7BE70BD0000B0
:101B600010B586B0044614216846FEF7E5FB2068F0
:101B7000B0F1804F15D10C480021026842F00102FB
:101B80000260006800F00100059003200090022030
:101B9000CDE901010120CDE9031069460348FFF7B3
:101BA0004BFA06B010BD0000303802400000024081
:101BB000704770B5044690F83C000D4601280DD0E2
:101BC000012684F83C60022084F83D0042B1042ADA
:101BD00018D0082A2AD00C2A4DD139E0022070BD35
:101BE000206800F045FD2068816941F008018161AD
:101BF0002068816921F004018161206881692A6976
:101C0000114311E0206800F063FD2068816941F410
:101C1000006181612068816921F4806181612068AF
:101C200081692A6941EA0221816124E0206800F08B
:101C300085FD2068C16941F00801C1612068C16962
:101C400021F00401C1612068C1692A69114311E0D2
:101C5000206800F0A7FD2068C16941F40061C161FE
:101C60002068C16921F48061C1612068C1692A6965
:101C700041EA0221C16184F83D60002084F83C0003
:101C800070BD10B5040003D094F83D0010B107E01A
:101C9000012010BD002084F83C00204600F00CF824
:101CA000022084F83D00211D206800F07DFC012009
:101CB00084F83D00002010BD08B50068B0F1804FE9
:101CC00008D10548016841F001010160006800F099
:101CD0000100009008BD000040380240704700003D
:101CE00000680349884201D1FFF79CBA70470000A1
:101CF00000000140704710B504460068416994F83F
:101D00003920C1F3C011212A0BD151B1416921F011
:101D100080014161206B08B1FEF7C3FF204600F04F
:101D2000C7FD2068416994F83A20C1F38011222A46
:101D30000BD151B1416921F040014161606B08B1A3
:101D4000FEF7AFFF204600F0A5FD002010BD704754
:101D500070B5026804461068D168536910F00F0F1F
:101D600052D003F0010501F490762E435FD0C207F4
:101D700005D0CA0503D5E26B42F00102E2634207D7
:101D800005D5DA0703D0E26B42F00202E263820774
:101D900005D5DA0703D0E26B42F00402E2630207E2
:101DA00007D501F020022A4303D0E26B42F008027B
:101DB000E263E26B002A33D0800604D5880602D5A0
:101DC000204600F07EFD20684069E16BC0F3801082
:101DD000090700D428B3204600F05CFD2068416963
:101DE00049061AD5416921F040014161606BA0B1FB
:101DF0001B490165606BFEF79BFF002810D0606BEC
:101E0000016DBDE870400847830610D58B060ED5DE
:101E10002046BDE8704000F054BD2046FFF797FF14
:101E200070BD2046FFF793FF0020E06370BD0306FE
:101E300006D50B0604D52046BDE8704000F020BE54
:101E40004006F3D54806F1D5D168204621F040017F
:101E5000D160202184F8391000F0DCF870BD00005A
:101E6000F527000870B5040004D094F83900002567
:101E700010B106E0012070BD84F83850204600F013
:101E800023F8242084F839002068C16821F4005127
:101E9000C160204600F060FD2068016921F4904196
:101EA00001612068416921F02A0141612068C1680F
:101EB00041F40051C160E563202084F8390084F8C2
:101EC0003A00002070BD000070B586B006461421AF
:101ED0006846FEF731FA23493068884240D12248EB
:101EE0000025016841F010010160006800F0100059
:101EF00005901D481438016841F002010160006836
:101F0000694600F002000590C02000900220CDE953
:101F1000010503200390072004901448FFF78CF874
:101F2000144C134820604FF00060C4E901054014D0
:101F3000C4E9035080106561C4E90650256220465B
:101F40006562FEF7D7FF08B1FEF7DBFA7463002283
:101F500005212520A663FFF7EBF92520FFF7DAF925
:101F600006B070BD00100140443802400004024039
:101F70004064024098030020F8B5044690F83A0007
:101F800020283CD1C1B3BAB394F83800012836D028
:101F9000012084F83800A162A2850025E563222093
:101FA00084F83A00636B1748D863636B164818646B
:101FB000636B1648D864606B134605650846666B0C
:101FC000216802463046091DFEF7FEFF20680168C1
:101FD0004168009184F83850C16841F48071C16053
:101FE0002068416941F0010141612068416941F087
:101FF000400141610020F8BDFFE70120FBE702201E
:10200000F9E700004F2800088B2800080528000881
:10201000704770477047FEE7104810B50E490160E1
:102020000321416000214FF400228160C0E90312C6
:102030004FF4401242610176012242768176C176E8
:1020400001774177FEF7CDFC002803D0BDE81040B2
:10205000FEF757BA10BD0000006400409C0000204D
:10206000094808B5016841F4800101600068002258
:1020700000F48000009005213A20FFF759F9BDE8EF
:1020800008403A20FFF746B93038024010B596B004
:102090001C2211496846FEF736F90021684601F016
:1020A000DEF80E4C0C491C2260601C3107A8FEF7BC
:1020B0002AF9002107A801F0D2F8074920601C2264
:1020C00038310EA8FEF71FF900210EA801F0C7F85D
:1020D000206016B010BD0000D83D000800000020B0
:1020E000F0B587B014216846FEF726F9254800248C
:1020F000016841F040010160016801F04001059173
:10210000016841F001010160016801F001010591E0
:10211000016841F002010160016801F002010591CE
:10212000016841F008010160016801F008010591B2
:10213000016841F0800101600068134E00F08000EA
:102140004FF400550590002229463046FFF75EF80F
:102150000E4F00221C213846FFF758F80095012544
:10216000CDE90154694630460394FEF765FF1C2013
:102170000090CDE90154694638460394FEF75CFFB0
:1021800007B0F0BD3038024000180240001C024089
:1021900010B58AB0002407941C2168460894FEF705
:1021A000CBF81B484FF0804101605321C0E9011476
:1021B00044F62061C0E903148461FFF762FD08B1B1
:1021C000FEF79FF9079407A911480894FFF79EFBB3
:1021D00008B1FEF796F9602000904FF47A70CDE9CF
:1021E0000104002269460A480494FFF7E2FC08B1A2
:1021F000FEF787F9042269460548FFF7DAFC08B1C3
:10220000FEF77FF90248FFF7ABFC0AB010BD0000F3
:10221000180300200E4810B50C4901600D494160BB
:102220004FF48051816000214FF48062C0E90312B5
:102230000C22C0E90521C161FFF714FE002803D07C
:10224000BDE81040FEF75DB910BD00000010014070
:1022500058030020A0860100FEE77047A0B1D0ED32
:10226000101AC0ED111A90ED0F1A80ED101AC0ED82
:10227000060A80ED070A30EEC00A80ED0F0A0178E9
:1022800029B101293BD078E09FED3D0A7047D0EDA0
:10229000010A60EE801AC0ED091AD0ED0A0A90ED2D
:1022A000022A42EE000A30EE410AC0ED0A0A90ED21
:1022B0000D2A80ED0E2A90ED0C2A80ED0D2A80ED7E
:1022C0000C0A90ED031A21EE001A80ED0B1A90ED26
:1022D000050AF4EEC00AF1EE10FA09DCB1EE400A8C
:1022E000F4EEC00AF1EE10FA02D390ED0A0A01E012
:1022F00080ED0A0A31EE800A30EE010A2BE070EE22
:10230000410A90ED012A20EE822A80ED092AD0EDC3
:10231000020A60EE800AC0ED0A0AD0ED0D2A72EEC4
:10232000200AC0ED0E2AD0ED0C2AC0ED0D2AF0EEE9
:10233000002A01EE620A30EE210A80ED0C0A90EDCF
:10234000031A21EE000A80ED0B0A30EE800AD0ED70
:10235000080A30EE200A80ED080AD0ED040AB4EE37
:10236000E00AF1EE10FA06DCF1EE600AB4EEE00AE3
:10237000F1EE10FA01D2C0ED080A90ED080A70479C
:1023800000000000002828D0002A26D0017092ED1D
:10239000001A80ED011A92ED011A80ED021A92EDF9
:1023A000021A80ED031A80ED040A9FED0C0AC0EDBD
:1023B000050A80ED0E0A80ED0D0A80ED0C0A80ED15
:1023C000080A80ED0B0A80ED0A0A80ED090A80ED0B
:1023D000110A80ED100A80ED0F0A7047000000001E
:1023E00010B52948294C0078E8B3D4ED080A94EDDB
:1023F000090A04F1BC00FFF731FFBDEEC00A10EE80
:10240000100AA083D4ED030A94ED040A04F5827047
:10241000FFF724FFBDEEC00A10EE100A2081B4F9C8
:102420001C0000EE100AA069F8EEC00AB0F9020024
:1024300000EE100A04F12C00B8EEC00AFFF70EFF00
:10244000BDEEC00A10EE100A2085B4F9080000EEB7
:10245000100A6068F8EEC00AB0F9020000EE100A37
:10246000B8EEC00A00E009E004F17400FFF7F6FEE0
:10247000BDEEC00A10EE100AA08210BD4FF4E1605C
:1024800020854FF6F800F7E794000020E84300208D
:10249000012000F0D8FEFBE710B5502080F3118832
:1024A000BFF34F8FBFF36F8F01F0D0FB18B104491A
:1024B0004FF080500860002080F3118810BD0000AC
:1024C00004ED00E030B593B030216846FDF734FFED
:1024D00014210CA8FDF730FF19480025016841F0D0
:1024E00080510160006800F080501190154801682B
:1024F00041F4404101600068022400F44040119022
:1025000001200090000401908001CDE906400620E2
:102510000890A820CDE9090404200B906846FFF735
:1025200045F80CA90F2081E831004FF4A0500F901E
:10253000E002109005210CA8FEF72CFF13B030BD6F
:1025400040380240007000401048016841F47001BA
:1025500001600F48016841F0010101600C4A00214F
:102560000832116002680B4B1A400260031D0A4AD0
:102570001A60026822F48022026005480C30016073
:1025800002495806803908607047000088ED00E075
:1025900000380240FFFFF6FE103000240148FFF72C
:1025A0002BBA0000F8030020F0B50268254C264D38
:1025B000264E274F274B4FF0804CA04209D0604554
:1025C00007D0A84205D0B04203D0B84201D098420B
:1025D00004D122F0700E4A6842EA0E02A0421BD0DB
:1025E000604519D0A84217D0B04215D0B84213D0D8
:1025F000984211D0184DA8420ED0184DA8420BD0C9
:10260000174DA84208D0174DA84205D0164DA84234
:1026100002D0164DA84203D122F44075CA682A435D
:102620004D6922F080022A4302608A68C2620A6809
:102630008262A04201D0984201D10969016301215F
:102640004161F0BD0000014000040040000800406E
:10265000000C0040000401400040014000440140E3
:102660000048014000180040001C004000200040CD
:10267000F0B5026A22F001020262036A42688469CC
:10268000124E24F073050C682C4323F002058B686E
:102690002B430D4DA84201D0B04205D123F00807CD
:1026A000CB683B4323F00403A84201D0B04205D1DC
:1026B0004D6922F4407215438A692A43426084615D
:1026C000496841630362F0BD00000140000401401D
:1026D000F0B5026A22F010020262026A436884695D
:1026E0000D6824F4E64444EA05248D6822F02002B3
:1026F00042EA05120F4D104EA84201D0B04206D159
:10270000CF6822F0800242EA071222F04002A8427B
:1027100001D0B04207D14D6923F4406343EA8503F9
:102720008D6943EA8503436084614968816302627D
:10273000F0BD00000000014000040140F0B5026A55
:1027400022F480720262026A4368C46922F4007251
:1027500024F073050C68124E2C438D6842EA052262
:102760000E4DA84201D0B04206D1CF6822F40062DB
:1027700042EA072222F48062A84201D0B04207D187
:102780004D6923F4405343EA05138D6943EA051369
:102790004360C4614968C1630262F0BD000001404A
:1027A0000004014030B5026A22F480520262046AD9
:1027B0004268C3690D6823F4E64343EA05238D6844
:1027C00024F4005444EA0534084DA84202D0084DD0
:1027D000A84204D14D6922F4804242EA8512426047
:1027E000C36149680164046230BD0000000001401B
:1027F0000004014010B5806B0021C185C184FFF742
:10280000A6FA10BD70B5846B2068406994F8391041
:10281000C0F3C0100025212904D118B1E584204659
:1028200000F046F82068406994F83A10C0F3801030
:10283000222904D118B1E585204600F02BF8E06B81
:1028400040F01000E0632046FFF781FA70BD10B53C
:102850000146806B09680968C90513D40021C18548
:102860000168CA6822F48072CA6001684A6922F06D
:1028700001024A6101684A6922F040024A6120214E
:1028800080F83A10FFF7C4FB10BD10B5806BFFF75E
:10289000C0FB10BD0168CA6822F49072CA6001686A
:1028A0004A6922F001024A61202180F83A107047FB
:1028B0000168CA6822F0C002CA60202180F839107D
:1028C000704710B590F83A10222901D0022010BDAF
:1028D0008168B1F5805F11D00169002901681FD0BE
:1028E000496801F07F03816A4A1C82620B70C18DC6
:1028F000491E0904090CC18518D02BE00269816AC0
:10290000002A0268526805D0D2B20A80816A491C46
:102910008162ECE7C2F308020A80816A891CF7E74A
:102920004A68816A4B1C83620A70E0E70168CA68E2
:1029300022F02002CA600168CA6822F48072CA606C
:1029400001684A6922F001024A61202180F83A10A8
:10295000FFF75EFB002010BD2DE9F0410446006842
:102960000169E26821F44051114301612169A068C5
:10297000E26908436169114308432168CA6849F262
:102980000C639A430243CA6020684169A26921F43A
:10299000407111434161E069192764253226B0F581
:1029A000004F354A354920684FF0000806D088426C
:1029B00001D0904236D1FEF7B7FD35E0884201D014
:1029C000904202D1FEF7B0FD01E0FEF79DFD616887
:1029D0004A18A0FB070148EB0803FDF763FC01461A
:1029E000B0FBF5F00201B1FBF5F06FF018035843AE
:1029F00001EB800006EBC000B0FBF5F000F0F80042
:102A000002EB4002B1FBF5F0584301EB800006EB0E
:102A1000C000B0FBF5F000F00700216810448860AA
:102A2000BDE8F081FEF770FD61688B0F8A00A0FBA6
:102A30000701FDF737FC0146B0FBF5F06FF0180217
:102A4000504301EB800006EB0010B0FBF5F000F006
:102A5000F002B1FBF5F002EB0012B1FBF5F06FF004
:102A60001803584301EB800006EB0010B0FBF5F0B3
:102A700000F00F00D1E700000014014000100140F9
:102A800090F83910212901D0022070478168B1F5F2
:102A9000805F016A0BD04A1C0262026809785160AB
:102AA000C18C491E0904090CC1840ED017E00988A5
:102AB0000268C1F30801516001690029016A02D06E
:102AC000491C0162ECE7891CFBE70168CA6822F037
:102AD0008002CA600068C16841F04001C160002006
:102AE00070470000084808B500680168C943C90676
:102AF00004D401684068009000F00AF8BDE808407E
:102B00000148FFF725B9000058030020FEE7000048
:102B100010B51048FFF7EFF80F4800684068C0F1A3
:102B20002400C4B2122C08D10C4901F1160000F0A7
:102B30000BFEFEF771FB0A49086008482146163073
:102B4000FDF7FAFB05492422BDE810401631014883
:102B5000FFF712BA580300209803002028430020F2
:102B60007C0000200907090E002804DB00F1E020AA
:102B700080F80014704700F00F0000F1E02080F8AA
:102B8000141D704702E008C8121F08C1002AFAD1BC
:102B900070477047002001E001C1121F002AFBD1DD
:102BA0007047000000B58BB000200121CDE906017F
:102BB0000590009001900290039004900E20CDE9C2
:102BC000081069460548FDF713FD0448FEF736F87E
:102BD00002210248FDF796FC0BB000BD9C000020CE
:102BE00070B5002820D000291ED0002A1CD0002B50
:102BF0001AD0114C9FED110A2478B4B1012C14D0D5
:102C0000042C11D114461D461A4600F013F9286809
:102C1000DFED0B0AB0F9040000EE100AB8EEC00AAE
:102C200020EE200A84ED000A70BD80ED000A81EDDF
:102C3000000A82ED000A70BD78000020000000004C
:102C40000AD723BC00280FD0016802238A7A0C49D6
:102C5000032A0AD0022A0AD0012A0CD0097861B1CD
:102C6000012906D0042904D07047042200E0012283
:102C70000A700371704700220A70032101717047C6
:102C8000780000202DE9FF410446002000900190CB
:102C90000290039094ED731AD4ED740A94ED750AC2
:102CA000F1EE411A694631EEE02ADFED2D1A00EE11
:102CB000212A8DED002A31EE602A00EE212ADFED77
:102CC000291A8DED012A31EE202A70EEC10A00EE9C
:102CD000212A40EE210A8DED022ACDED030A20794A
:102CE00003284FF0000029D001EB800292ED000A8A
:102CF00000EB800204EB8202401C82ED050A0428EE
:102D0000F2DB002505EB850004EB800605EBC50032
:102D100004EBC007D6ED050A96ED040A07F158004A
:102D2000FFF79CFA97ED1E0A6D1C042DBDEEC00A3C
:102D300010EE100A3083E5DBBDE8FF8101EB800275
:102D400000EB800392ED000A04EB8303401CBDEE10
:102D5000C00A042810EE102A1A83EFDBECE700000B
:102D6000EB5138BEAF4761BE00284ED000219FED29
:102D7000271A9FED270A00BF01EB810200EB8202B8
:102D80009368B3F9023000EE903A01EBC10300EB17
:102D9000C303F8EEE00A491CC9B2042960EE810AB7
:102DA000C2ED040AD3ED220A60EE800AC2ED030AE6
:102DB000E2D390ED092AD0ED041AD0ED0E0A32EEDE
:102DC000610AF1EE611A71EEC21A30EE201A90ED2E
:102DD000130A31EEA02A71EEE00A71EE402AB5EE38
:102DE000001A32EE002A30EEC00ADFED0A0A62EE67
:102DF000812A22EE012A20EE010AC0ED702A80ED20
:102E0000712A80EE201A80ED721A70470A01DA39B1
:102E10000000FA43CDCC4C3E427901798A4208D079
:102E2000022A05D0022903D190ED7D0A80ED780AAF
:102E300041717047002A1CD000281AD0002918D0F0
:102E40001268DFED0C0A9FED0C1AB2F90230B2F9EC
:102E5000002000EE103AB8EEC00A20EE200A00EE84
:102E6000902A80ED000AF8EEE00A60EE810AC1EDDA
:102E7000000A70470AD7A3BB6F1283BB2DED028BEC
:102E800084B040F2651000F0DEF93D4D032028715A
:102E900000F0B4F99FED3B8ADFED3B8A0024286007
:102EA000204600F09DF904EB840105EB8101F0EE72
:102EB000480A886004EBC40005EBC000B0EE680A65
:102EC000324A00215830FFF75DFA641CE4B2042C4A
:102ED000E6D3304D9FED2E8A4FF4FA762848FFF75F
:102EE000B1FE2748FFF798FF2548FFF73DFF244C28
:102EF0008DED008A8DED018A8DED028A234602AAAE
:102F000001A96846FFF76CFE2079022802D0032849
:102F10000DD018E09DED020A84ED750A9DED000AC2
:102F200084ED730A9DED010A84ED740A0BE09DEDBA
:102F3000000A84ED730A9DED010A84ED740A9DED8B
:102F4000020A84ED750A0E48FFF79CFEFEF764F94D
:102F50002968401AB04209D20948B0F95430B0F992
:102F60004020B0F92C10B0F9180003E000231A46F5
:102F700019461846FDF724FA022000F064F9ADE77F
:102F8000284100200000FA4400007A464C3E000828
:102F9000000000007C0000202DED048B642000F078
:102FA00052F96A4E00F02AF9306000F02BF9706097
:102FB00000F020F900259FED668ADFED668A9FED1F
:102FC000669ADFED669AB06105EBC50006EBC004BA
:102FD00004F12C00F0EE480AB0EE680A604A0021C5
:102FE000FFF7D0F95E4A04F1BC00F0EE490AB0EEFA
:102FF000690A0C320021FFF7C5F96D1C022DE3DBD5
:10300000F8EE088AB0EE088A564F4FF4FA68DFF8F7
:1030100058910026554C4FF0030A4C4D00F0B0F883
:103020002078052832D2DFE800F003683F0C2A0040
:103030006068401C6060404528DD00BF84F800A047
:1030400023E02868C07A032817D09FED490A85ED50
:10305000080A9FED480A002285ED030A1021384630
:10306000FEF7D4F8002204213846FEF7CFF80022FC
:1030700008213846FEF7CAF808E0022004E0286874
:10308000C07A022834D1012020706660FFF7A8F9C9
:103090000023B5F92810B5F914001A46FDF7B4F964
:1030A000012000F0D0F8B9E73349686A884202D3BA
:1030B000042121706660484501D9012200E0002208
:1030C00010213846FEF7A2F860680122401C6060BB
:1030D00004213846FEF79AF86068B0F57A7FD5DDAE
:1030E000012208213846FEF791F860684045CDDDA1
:1030F000C5ED088A85ED038AC8E70022102138460D
:10310000FEF784F86068401C6060B0F5487F04DD1D
:10311000002208213846FEF779F8606840F2DC5159
:10312000884204DD002204213846FEF76FF860680B
:10313000404505DD9FED110A85ED080A85ED030A7E
:10314000686A4845FFF47AAFA0E70000E843002032
:103150000000FA4400007A460000C8430080BB44E7
:10316000583E0008001C0240000080BF9400002070
:103170009A9919BF9A99193F000020C000000000D9
:1031800014480178144821B94268002151818269AC
:1031900051818169B1F90A200988C2EB4232114498
:1031A00000EE101AF8EEC00A9FED0C0A60EE800ADD
:1031B000C0ED090A4168B1F90A200988C2EB423220
:1031C000114400EE901AF8EEE00A20EE800A80ED3D
:1031D000040A704794000020E843002069922738D1
:1031E00000F00300024900EB400001EB8000704753
:1031F0006443002000487047A04300200048704707
:10320000284300200048704794430020FEF712F83E
:10321000FFF758F9FEF764FFFEF722FFFEF7FAFF0B
:10322000FEF7FAFEFEF7B4FFFFF7BCFC00F07CFAF5
:10323000FEF72CFF00F00EF8FEE70146002084297F
:1032400000D0C81C704710B500B9012000F09AFBEF
:10325000002010BD10B500F0BBFB002010BD7FB5F5
:103260000D4604464169B0F9080081B1A16971B108
:10327000FFF7E3FFD4E905128DE80700D4E9001059
:103280002B46226900F0B7FC039004B070BDFFF735
:10329000D4FF03A9CDE90001208A2B4682B2D4E9EC
:1032A000001000F07BFC012801D00020EDE703981E
:1032B000EBE700002DE9F0411A4C0F460546666920
:1032C0002168002081F852002068001D00F096FA65
:1032D00038B9206890F82C1001208840A1698143FA
:1032E000A161681C07D137B12168BDE8F0410E48E3
:1032F000091D00F0C7BA20683544B5424560216811
:1033000005D2A068BDE8F041091D00F0A3BA6068CD
:10331000091D00F09FFA206B854200D22563BDE8AD
:10332000F081000018000020140500202DE9F04174
:10333000054600F0B3FA2E4C2069401C206120683D
:103340002C4F10B1E06940B32DE0256020690128C1
:1033500029D1002606EB860007EB800000F06CFA0E
:10336000761C072EF6D323488C3000F065FA2148EE
:10337000A03000F061FA1F48B43000F05DFA1D483B
:10338000C83000F059FA1B48DC3000F055FA1948F3
:103390008C3060601430A06005E02068E96AC06A83
:1033A000884200D82560E06A401CE062E96A01209A
:1033B000A26988401043A06101EB810007EB800007
:1033C000291D00F05FFA00F089FAE06900280CD0AE
:1033D0002068E96AC06A884207D207494FF08050E6
:1033E0000860BFF34F8FBFF36F8FBDE8F08100001F
:1033F000180000203804002004ED00E010B5044659
:1034000090F8510058B101280CD002280FD050205C
:1034100080F31188BFF34F8FBFF36F8FFEE7206BF0
:1034200000F070FA2046BDE8104000F06BBA10BD05
:1034300010484FF47051420706D0C01D0D4920F0CE
:103440000700411AC1F570510B4A00230144C2E93B
:1034500000030839103A21F0070111604B600B603E
:103460000B1AC0E9001393604FF000405360D06026
:10347000704700002805002064000020144E154C01
:10348000A6F1C8074FF08058DFF84C9012E000BF5B
:1034900000F004FAF068C568281D00F0AFF9206953
:1034A000401E2061E068401EE06000F017FA2846E8
:1034B000FFF7A4FFE0680028EAD138680128F9D9AD
:1034C000C9F80080BFF34F8FBFF36F8FF2E70000A2
:1034D000000500201800002004ED00E02DE9F05F59
:1034E0008846DDE90B941546834691009A460A9E6C
:1034F000A522206BFCF719FF6FF00301206B01EB95
:103500008501084420F00707780707D0502080F392
:103510001188BFF34F8FBFF36F8FFEE70025B8F11F
:10352000000F0FD05FF00000221818F8001082F88A
:10353000341018F8001011B1401C1028F4D384F88E
:10354000435001E084F83450072E00D30626E6628B
:10355000C4E91165201D00F07AF904F1180000F0AB
:1035600076F92461C6F107006462A061E56484F81D
:10357000505084F8525052465946384600F0BEF832
:103580002060B9F1000F01D0C9F80040BDE8F09FFC
:1035900030B5114900E011460A688242FBD34B68FE
:1035A0005C18844203D14068184448600846436868
:1035B0001C18944209D1084C103C2468A24209D03E
:1035C00052681A4442600A6812680260814200D060
:1035D000086030BD0460F9E76400002006484168D7
:1035E000096829B14168C968C968496801637047B9
:1035F0004FF0FF31FAE7000018000020084840684B
:10360000401C4FF0500080F3118804D0BFF34F8F5F
:10361000BFF36F8FFEE7BFF34F8FBFF36F8FFEE7F0
:103620006C0000202DE9F0410546002700F006FA65
:10363000314E306808B9FFF7FBFEF06805424BD108
:10364000C5B3083568070ED005F00700C0F10800C3
:103650000544680707D0502080F31188BFF34F8FCF
:10366000BFF36F8FFEE72DB37068854234D82248D0
:10367000103001460C6801E020460C466168A94202
:1036800002D221680029F7D131688C4224D0076822
:103690002168016060680837411B10290FD9601943
:1036A000420708D0502080F31188BFF34F8FBFF33B
:1036B0006F8FFEE710E041606560FFF769FF6168AA
:1036C0007068401A7060B268904200D2B060F068D2
:1036D00001430020C4E9000100F01CFB780707D07B
:1036E000502080F31188BFF34F8FBFF36F8FFEE739
:1036F0003846BDE8F08100005400002010B5031FDB
:103700004FF080741C601B1F21F001011960191F0C
:10371000044B0B6014390A60091F6FF00202443831
:103720000A6010BDFD35000805480068C16841F019
:103730001001C160242203490148FEF71DBC0000AE
:10374000580300203E430020F0B5002855D0002942
:1037500053D00278437842EA0322C2F30A020A8075
:1037600043788478DB0843EA4413C3F30A034B80AD
:103770008478C578A40944EA8504057944EA852457
:10378000C4F30A048C80057946796D0845EAC615AC
:10379000C5F30A05CD804679C6F301168E724679C7
:1037A000B609CE728679C77946EA07268E81067AEF
:1037B000477A46EA0726CE81867AC77A46EA0726FE
:1037C0000E82067B8E74467BCE74867BC77B46EA70
:1037D00007268E82067C407CA2F580620A80A3F5D3
:1037E00080634B80A4F5806446EA00208C80A5F5B8
:1037F0008065CD80A0F580600881F0BDD0E9013200
:1038000001699A60D0E901235A604A68824201D175
:1038100082684A60002202610868401E08600868E9
:1038200070470000034B036003F1540008608020E0
:1038300010607047C400002000F108014FF0FF3213
:10384000C0E90112C16001610021016070470021DF
:103850000161704730B50B685A1C02D000F10802B4
:1038600002E0026904E02246546825689D42FAD9C4
:1038700053684B6099608A60516008610168491C17
:10388000016030BD42684A6093688B6093685960FC
:10389000916008610168491C01607047502080F305
:1038A0001188BFF34F8FBFF36F8F0A494868401CE0
:1038B000486001280CD10848006810F0FF0F07D0BD
:1038C000502080F31188BFF34F8FBFF36F8FFEE757
:1038D000704700006C00002004ED00E008494868D3
:1038E00028B1401E486001D180F3118870475020F4
:1038F00080F31188BFF34F8FBFF36F8FFEE7000097
:103900006C00002070B5002827D0144DA0F10804E9
:103910006168E868014207D1502080F31188BFF345
:103920004F8FBFF36F8FFEE722683AB1502080F3CC
:103930001188BFF34F8FBFF36F8FFEE78143616044
:1039400000F07CF860686968084468602046FFF70A
:103950001FFEBDE8704000F0DDB970BD54000020CE
:103960004FF0E02000210161816105494FF47A7236
:103970000968B1FBF2F1491E4161072101617047FD
:103980001400002010B5020014D00F48806B38B12D
:10399000502080F31188BFF34F8FBFF36F8FFEE786
:1039A00000F04CF800211046FFF784FC00F0B2F95B
:1039B000002807D105494FF080500860BFF34F8FB2
:1039C000BFF36F8F10BD00001800002004ED00E071
:1039D00010B586B00024039405AA04A903A8049492
:1039E000FFF720FFDDE903010094CDE9011000237A
:1039F0000EA11048059A00F0FEF80F490028486310
:103A000011D0502080F31188BFF34F8FBFF36F8F19
:103A10004FF0FF3008630120C8614C6106B0BDE87B
:103A2000104000F041B806B010BD000049444C45BC
:103A3000000000007D340008180000200248816B5F
:103A4000491C816370470000180000201448816BF6
:103A500011B1012141627047002141628169B1FACF
:103A600081F1C1F11F0101EB81020E4951F82230B1
:103A70006BB101EB820101F108034A6852684A60A8
:103A80009A4201D152684A60D16801607047502063
:103A900080F31188BFF34F8FBFF36F8FFEE70000F5
:103AA00018000020380400201CB537480168374A48
:103AB000914207D1502080F31188BFF34F8FBFF39D
:103AC0006F8FFEE700683149491E884207D15020B8
:103AD00080F31188BFF34F8FBFF36F8FFEE72C4940
:103AE00008780190FF20087008788DF800009DF894
:103AF00000009DF8002000F0F000904207D0502018
:103B000080F31188BFF34F8FBFF36F8FFEE79DF8EF
:103B10000000204B00F0500018700720986005E06E
:103B20009DF8002052008DF80020401E9DF80020D6
:103B30001206F5D49860032807D0502080F311882E
:103B4000BFF34F8FBFF36F8FFEE74FF44070986065
:103B5000019808700C482030016841F47001016040
:103B6000016841F070410160FFF7FAFE00205860E3
:103B7000FCF74AFB0848016841F040410160FCF74E
:103B80002FFB00201CBD000000ED00E071C20F41C2
:103B900000E400E06C00002034EF00E02DE9FF5F5E
:103BA0008346DDE90E87994616468A469000FFF760
:103BB00039FD05001CD05420FFF734FD040014D05B
:103BC0000020256384F85100CDE90240CDE900874B
:103BD0004B46324651465846FFF780FC2046FFF7D9
:103BE000A5FB012004B0BDE8F09F2846FFF78AFE40
:103BF0004FF0FF30F6E7F0B585B0DDE90B640A9DC4
:103C0000A6B1DCB1542700972663022684F85160E0
:103C1000002604AFCDE90246CDE90057FFF75EFC70
:103C20002046FFF783FB049805B0F0BD502080F3D9
:103C30001188BFF34F8FBFF36F8FFEE7502080F3E3
:103C40001188BFF34F8FBFF36F8FFEE72DE9F0416F
:103C50002E4C0027A06B40B1206A401C2062606A95
:103C600000B101273846BDE8F0816669761C6661BF
:103C700013D16068006838B1502080F31188BFF319
:103C80004F8FBFF36F8FFEE76068A1686160A0602F
:103C9000A06A401CA062FFF7A1FC206BDFF87080D7
:103CA000864209D36068006880B16068C068C568F2
:103CB000686886420DD220632068C06A00EB8001EC
:103CC00058F821000128CAD90127C8E74FF0FF3072
:103CD000F1E7281DFFF792FDA86A18B105F1180059
:103CE000FFF78CFDE86A0121A26981401143A161BF
:103CF00000EB800108EB8100291DFFF7C3FDE86A96
:103D00002168C96A8842CDD30127CBE7180000207B
:103D1000380400202DE9F0472C4D00242746A86BDD
:103D200038B1FFF7BBFDA86B401EA863A86B40B17C
:103D300046E0502080F31188BFF34F8FBFF36F8FA1
:103D4000FEE72969224E0120D1B3A6F1B4098046CD
:103D50003068E8B1F068C46804F11800FFF74EFD60
:103D6000201DFFF74BFDE06AAA6908FA00F1114334
:103D7000A96100EB800109EB8100211DFFF782FDA5
:103D8000E06A2968C96A8842E2D3C5F82480DFE77F
:103D90000CB1FFF723FC2C6A44B14646FFF756FFEF
:103DA00000B16E62641EF9D100202862686A38B1E1
:103DB0000849012738070860BFF34F8FBFF36F8FA3
:103DC000FFF78CFD3846BDE8F087000018000020A2
:103DD000EC04002004ED00E0883E00089124000877
:103DE0000000000000000000800000000000000053
:103DF000000000007C3E00087D2E0008010000004D
:103E000000000000000200000000000000000000B0
:103E1000703E0008992F000801000000000000001B
:103E20000002000000000000000000000006101664
:103E3000000610160000000000000000010203044C
:103E400006070809000000000102030400606A463A
:103E50000000204100000000000020410000803FE1
:103E6000000000000080BB440000000000000000D3
:103E7000656E67696E65725461736B004368617348
:103E80007369735461736B0064656661756C745417
:103E900061736B00B43E0008000000209C0000002D
:103EA000842B0008503F00089C0000209C48000024
:103EB000942B00080000000000000000010000003A
:103EC00010000000000000000024F40000000000CA
:103ED00000000000000000000000000000000000E2
:103EE00000000000000000000000000000000000D2
:103EF00000000000000000000000000000000000C2
:103F000000000000000000000000000000000000B1
:103F100000000000000000000000000000000000A1
:103F200000000000AAAAAAAA0000000000000000E9
:103F30000000000000000000000000000000000081
:103F40000000000000000000000000000000000071
:04000005080001AD41
:00000001FF
